:100000000C9475000C9429010C9456010C949600E4
:100010000C9496000C9483010C94B0010C94DD01B7
:100020000C940A020C9496000C9496000C94960082
:100030000C9496000C94DA090C94070A0C94AD0900
:100040000C9496000C9426090C9453090C94800986
:100050000C94F9080C949F080C94CC080C9472082A
:100060000C9496000C94FB130C9496000C94960040
:100070000C9496000C9496000C9496000C949600A8
:100080000C94610A0C948E0A0C94BB0A0C94340AEA
:100090000C94D30F0C9496000C9496000C9496003C
:1000A0000C9496000C9496000C94150B0C94420B37
:1000B0000C946F0B0C94E80A0C9496000C94C90BEA
:1000C0000C94F60B0C94230C0C949C0B05A84CCDB3
:1000D000B2D44EB93836A9020C50B9918688083C82
:1000E000A6AAAA2ABE000000803F11241FBECFEF9F
:1000F000D1E2DEBFCDBF00E00CBF17E0A0E0B2E070
:10010000EEEEF9E300E00BBF02C007900D92AC32B7
:10011000B107D9F719E0ACE2B7E001C01D92AA3FE0
:10012000B107E1F70E9425140C94F51C0C94000013
:100130000F931F93CF93DF934EE020E0C1E0D0E018
:10014000E7E0F0E058B1822F90E08E0102C0000F8E
:10015000111F2A95E2F7502758B90FEF11EE24E04E
:10016000015010402040E1F700C000000196BF019F
:100170000E942718282F415029F7DF91CF911F9116
:100180000F9108950E949800FDCF259A089587B198
:100190008F6787B988B18F6788B90895282F0000C5
:1001A00096B1982381E0921709F480E00895519860
:1001B000599A08958DB18F708DB950988EB1806F16
:1001C0008EB9589AE9E6F0E080818560808380816D
:1001D000857F8083EAE6F0E0808185658083808189
:1001E000857580830895837F31F06115710541F035
:1001F0009DB3982B9DBB20E030E0482F50E005C018
:100200002DB3982F90959223F5CFCA01022E02C0EC
:10021000959587950A94E2F780FF0AC08FB7F89406
:10022000F901EE0FFF1FE45DF84F718360838FBF0C
:100230002F5F3F4F2830310541F780E090E008956F
:100240000E94C5000E94C7000E94D7000E94DA00E9
:1002500008951F920F920FB60F920BB60F921124B2
:100260002F933F934F935F936F937F938F939F93BE
:10027000AF93BF93EF93FF93E0912C07F0912D077D
:10028000309709F01995FF91EF91BF91AF919F9130
:100290008F917F916F915F914F913F912F910F902F
:1002A0000BBE0F900FBE0F901F9018951F920F92CC
:1002B0000FB60F920BB60F9211242F933F934F93CB
:1002C0005F936F937F938F939F93AF93BF93EF93BE
:1002D000FF93E0912E07F0912F07309709F01995C1
:1002E000FF91EF91BF91AF919F918F917F916F910E
:1002F0005F914F913F912F910F900BBE0F900FBECA
:100300000F901F9018951F920F920FB60F920BB679
:100310000F9211242F933F934F935F936F937F938B
:100320008F939F93AF93BF93EF93FF93E091340725
:10033000F0913507309709F01995FF91EF91BF9132
:10034000AF919F918F917F916F915F914F913F916D
:100350002F910F900BBE0F900FBE0F901F9018950E
:100360001F920F920FB60F920BB60F9211242F937C
:100370003F934F935F936F937F938F939F93AF932D
:10038000BF93EF93FF93E0913607F09137073097D3
:1003900009F01995FF91EF91BF91AF919F918F91C6
:1003A0007F916F915F914F913F912F910F900BBE75
:1003B0000F900FBE0F901F9018951F920F920FB6BF
:1003C0000F920BB60F9211242F933F934F935F938D
:1003D0006F937F938F939F93AF93BF93EF93FF930D
:1003E000E0913807F0913907309709F01995FF919E
:1003F000EF91BF91AF919F918F917F916F915F919D
:100400004F913F912F910F900BBE0F900FBE0F9009
:100410001F9018951F920F920FB60F920BB60F9266
:1004200011242F933F934F935F936F937F938F93F9
:100430009F93AF93BF93EF93FF93E0913A07F091AF
:100440003B07309709F01995FF91EF91BF91AF915C
:100450009F918F917F916F915F914F913F912F91DC
:100460000F900BBE0F900FBE0F901F901895AF927C
:10047000BF92CF92DF92EF92FF920F931F93CF9391
:10048000DF930F92CDB7DEB788B194E0892788B9A2
:100490001982CE01019661E070E00E94A30F89816C
:1004A000813709F4AFC0823780F4843609F4A1C0E3
:1004B000853620F4813609F0D1C092C08F3609F418
:1004C0004AC0803709F0CAC00DC0833709F480C024
:1004D000833708F4B2C0873709F472C08A3709F04D
:1004E000BDC097C01092430780E092E00E94CC18F4
:1004F0008AEAE82E84E0F82ECC24DD2496E1A92EA9
:1005000092E0B92E8701D7018D917D010E94180DCF
:1005100000D000D0EDB7FEB73196ADB7BEB712969A
:10052000BC92AE921197D8012C91228313829583AD
:1005300084830E94BA180894C11CD11CEDB7FEB781
:1005400036960FB6F894FEBF0FBEEDBFF6E0CF169D
:10055000D104C1F683C01092430782E060E00E949C
:10056000890E8C0186E061E00E94890E7C0181E0A9
:1005700061E00E94890E2DB73EB7285030400FB67B
:10058000F8943EBF0FBE2DBFEDB7FEB731962FE2F8
:1005900032E0ADB7BEB712963C932E9311971383FA
:1005A0000283F582E482978386830E94BA18EDB7AE
:1005B000FEB738960FB6F894FEBF0FBEEDBF4EC023
:1005C00081E08093430710923C078CE592E044C0A1
:1005D00081E08093430780933C078BE692E03CC028
:1005E00081E08093430783E080933C078BE792E0B0
:1005F00033C081E08093430782E080933C0787E823
:1006000092E02AC08091430791E0892780934307B5
:1006100025C08091410791E089278093410780910F
:100620004107882329F00E94101084E992E014C049
:100630000E9415108DEA92E00FC08091420791E070
:1006400089278093420780914207882319F085EC1F
:1006500092E002C083EE92E00E94CC180F90DF91EE
:10066000CF911F910F91FF90EF90DF90CF90BF90AF
:10067000AF900895489906C08091430791E089277B
:10068000809343070895809143078823A9F08091C0
:100690003D0790913E07A0913F07B091400701961A
:1006A000A11DB11D80933D0790933E07A0933F0786
:1006B000B0934007469801C0469A60913D077091FB
:1006C0003E0780913F079091400728EE33E040E0DD
:1006D00050E00E943A18DC01CB010097A105B1055A
:1006E00021F488B198E0892788B908952F923F9224
:1006F0004F925F926F927F928F929F92AF92BF9232
:10070000CF92DF92EF92FF920F931F93CF93DF93DD
:10071000CDB7DEB762970FB6F894DEBF0FBECDBF80
:10072000AC01643008F098C04E010894811C911C03
:10073000AA24BB2400E010E070E0CB01880F991FD1
:10074000860F971F9C01E3E0220F331FEA95E1F724
:10075000B901665E7B4F7E876D872A016624772408
:10076000F901E654FC4FF88BEF87880F991F880F2B
:10077000991F9C0126583B4F3A8B298BBAE82B2EA8
:10078000B3E03B2E280E391EED85FE85E00FF11FEC
:1007900060817181828193812BED3FE049EC50E4CF
:1007A0000E9461176B017C01C301B2010E947216A5
:1007B0009B01AC01C701B6010E94611720E030E047
:1007C0004AE754E40E94DE15EF85F889E00FF11F37
:1007D00020813181428153810E9473150E94DB1573
:1007E0006B017C01E989FA89EA0DFB1D6081718149
:1007F00080E090E00E947216A70196010E946117A6
:100800006B017C01F101EA0DFB1D6081718180E0CB
:1008100090E00E9472169B01AC01C701B6010E94D4
:1008200073150E944616DC01CB01F401819391936C
:100830004F010C5F1F4F22E030E0A20EB31E0831C3
:10084000110509F0A1CF86E06AEA74E0AE014F5FBE
:100850005F4F20E00E94BB0D62960FB6F894DEBF9A
:100860000FBECDBFDF91CF911F910F91FF90EF9001
:10087000DF90CF90BF90AF909F908F907F906F90C0
:100880005F904F903F902F9008952F923F924F92FC
:100890005F926F927F929F92AF92BF92CF92DF92C0
:1008A000EF92FF920F931F93CF93DF93962E5A01EF
:1008B000190127013801FA012081261708F010825A
:1008C000F501C081D0E0CC0FDD1FC80FD91F6881B2
:1008D000798180E090E00E9472166B017C01B10189
:1008E00080E090E00E9472169B01AC01C701B60146
:1008F0000E9472156B017C01692D70E080E090E030
:100900000E9474169B01AC01C701B6010E94DE155E
:100910009B01AC01C301B2010E9472153982288289
:10092000F50120812F5F2083462F572F682F792FC5
:10093000CB01BA01DF91CF911F910F91FF90EF9002
:10094000DF90CF90BF90AF909F907F906F905F901F
:100950004F903F902F9008953F924F925F926F92E9
:100960007F928F929F92AF92BF92CF92DF92EF923F
:10097000FF920F931F93CF93DF9300D00F92CDB7C9
:10098000DEB7382E4B0129833A834B835C832701E2
:10099000380176016501882369F5CA01B90120E0B3
:1009A00030E046E153E40E945D1718161CF520E084
:1009B00086E990E0E22FF0E0EE0FFF1FE80DF91D51
:1009C000918380832F5F2038A9F700D000D083E087
:1009D00093E0ADB7BEB712969C938E931197898121
:1009E0009A81AB81BC81EDB7FEB783839483A583E5
:1009F000B6835EC0832D8250823008F090C069813A
:100A00007A818B819C8120E030E040E752E40E94B3
:100A1000D71587FF2FC020E08CE390E0E22FF0E0B5
:100A2000EE0FFF1FE80DF91D918380832F5F2038A3
:100A3000A9F700D000D08FE193E0ADB7BEB7129612
:100A40009C938E93119789819A81AB81BC81EDB77C
:100A5000FEB783839483A583B6830E94BA188DB7AB
:100A60009EB706960FB6F8949EBF0FBE8DBF80E06E
:100A700090E057C093E0391641F5C301B20120E080
:100A800030E040E252E40E945D1718160CF047C0B7
:100A900000D000D08DE393E0ADB7BEB712969C9323
:100AA0008E931197EDB7FEB74382548265827682AA
:100AB0000E94BA188DB79EB706960FB6F8949EBFDF
:100AC0000FBE8DBF82E090E02CC092E0391639F560
:100AD000C701B60120E030E040E252E40E945D1719
:100AE0001816ECF400D000D08DE593E0ADB7BEB79A
:100AF00012969C938E931197EDB7FEB7C382D48262
:100B0000E582F6820E94BA188DB79EB706960FB698
:100B1000F8949EBF0FBE8DBF83E090E002C0832D8E
:100B200090E00F900F900F900F90DF91CF911F9159
:100B30000F91FF90EF90DF90CF90BF90AF909F907C
:100B40008F907F906F905F904F903F90089582308C
:100B500039F0823018F0863008F042C0962F02C07B
:100B6000962F92959F7011F46623E9F58230D1F0AB
:100B7000833028F4882351F08130C1F50CC08430D3
:100B8000F9F08430B0F0853089F521C085B5887FD3
:100B9000890F85BD22C080918100887F890F809355
:100BA00081001BC08091B100887F890F8093B100C4
:100BB00014C080919100887F890F809391000DC0AF
:100BC0008091A100887F890F8093A10006C0809149
:100BD0002101887F890F8093210180E090E00895B2
:100BE00082E090E0089581E090E0089580E090E058
:100BF000089560E00E94A7050895FB01DA01908145
:100C00009C7F282F2370920F90839C91977F8C70EC
:100C1000880F980F9C930895FB01DA0190819C7FC7
:100C2000282F2370920F90839C91977E8C70880F51
:100C3000980F9C9308950E94FD050895982F823087
:100C400069F0833030F4882349F0813009F03FC0E7
:100C500002C08630E0F5862F829501C0862F8F7006
:100C600011F46623B9F59230C1F0933028F499233A
:100C700051F0913091F50CC09430D9F09430A0F03F
:100C8000953059F51BC064E470E045E450E009C0BC
:100C900060E870E041E850E015C060EB70E041EBC7
:100CA00050E00E94FD0510C060E970E041E950E0AD
:100CB00009C060EA70E041EA50E004C060E271E01F
:100CC00041E251E00E940C0680E090E0089582E04D
:100CD00090E0089581E090E0089580E090E008952C
:100CE000FA01309709F491C08230E9F1833030F491
:100CF000882359F0813009F085C017C0833009F48A
:100D000043C0843009F07EC05CC0613041F0613086
:100D100020F0623009F079C006C086B501C087B501
:100D2000808311826CC088B5FBCF613069F061307F
:100D300030F0623071F0633009F067C00FC080910D
:100D400084009091850059C080918800909189001D
:100D500054C080918A0090918B004FC080918C008C
:100D600090918D004AC0613049F0613020F06230CE
:100D700009F04BC006C08091B200D2CF8091B30081
:100D8000CFCF8091B400CCCF613061F0613028F0DA
:100D9000623069F06330C9F50FC080919400909182
:100DA00095002BC0809198009091990026C0809169
:100DB0009A0090919B0021C080919C0090919D0091
:100DC0001CC0613061F0613028F0623069F063303E
:100DD000F9F40FC08091A4009091A5000EC08091FD
:100DE000A8009091A90009C08091AA009091AB0041
:100DF00004C08091AC009091AD009183808380E02D
:100E000090E0089582E090E0089581E090E00895F8
:100E100081E090E008958230D9F1833030F4882366
:100E200059F0813009F081C015C0833009F441C008
:100E3000843009F07AC05AC0613041F0613020F04E
:100E4000623009F075C004C046BD67C047BD65C0CB
:100E500048BD63C0613069F0613030F0623071F0DC
:100E6000633009F065C00FC0509385004093840043
:100E700054C050938900409388004FC050938B001A
:100E800040938A004AC050938D0040938C0045C027
:100E9000613049F0613020F0623009F049C006C08D
:100EA0004093B2003AC04093B30037C04093B400BF
:100EB00034C0613061F0613028F0623069F0633035
:100EC000B9F50FC0509395004093940026C05093FD
:100ED00099004093980021C050939B0040939A0042
:100EE0001CC050939D0040939C0017C0613061F07E
:100EF000613028F0623069F06330E9F411C050933A
:100F0000A5004093A40009C05093A9004093A800F5
:100F100004C05093AB004093AA0080E090E0089595
:100F20005093AD004093AC00F8CF82E090E008957C
:100F300081E090E0089581E090E00895AB0160E0E9
:100F40000E940B070895AB0160E00E9470060895AF
:100F500060E070E00E949E070895EF92FF920F9369
:100F60001F93CF93DF930F92CDB7DEB7182F042FC7
:100F7000790169830E94F9056981009779F4812FCD
:100F80000E941E06009751F4812FB7010E949E0710
:100F9000009721F4812F602F0E94A7050F90DF9109
:100FA000CF911F910F91FF90EF900895813079F0CC
:100FB000813018F0863008F08FC021E030E0062E36
:100FC00002C0220F331F0A94E2F7277009C021E004
:100FD00030E0062E02C0220F331F0A94E2F72F7270
:100FE000222309F47CC0823061F1833030F48823FD
:100FF00061F0813009F05CC016C08430F1F18430BA
:1010000070F1853009F054C046C090916E004115D2
:10101000510521F0922B90936E004AC02095292310
:1010200020936E0045C090916F004115510521F04D
:10103000922B90936F003CC02095292320936F0042
:1010400037C0909170004115510521F0922B90937B
:1010500070002EC0209529232093700029C0909104
:1010600071004115510521F0922B9093710020C021
:1010700020952923209371001BC090917200411587
:10108000510521F0922B9093720012C020952923D4
:10109000209372000DC0909173004115510521F00D
:1010A000922B9093730004C0209529232093730002
:1010B0009FB7F894E82FF0E0EE0FFF1FEE0FFF1F31
:1010C000E60FF11DEE0FFF1FEC5BF84F51834083DD
:1010D0009FBF80E090E0089582E090E0089581E075
:1010E00090E008951F920F920FB60F920BB60F92D9
:1010F00011242F933F934F935F936F937F938F931D
:101100009F93AF93BF93EF93FF93E0914407F091C8
:101110004507309709F01995FF91EF91BF91AF9175
:101120009F918F917F916F915F914F913F912F91FF
:101130000F900BBE0F900FBE0F901F9018951F922F
:101140000F920FB60F920BB60F9211242F933F936D
:101150004F935F936F937F938F939F93AF93BF93BF
:10116000EF93FF93E0914607F0914707309709F01E
:101170001995FF91EF91BF91AF919F918F917F91C1
:101180006F915F914F913F912F910F900BBE0F90F8
:101190000FBE0F901F9018951F920F920FB60F92CF
:1011A0000BB60F9211242F933F934F935F936F933E
:1011B0007F938F939F93AF93BF93EF93FF93E091B0
:1011C0004607F0914707309709F01995FF91EF9185
:1011D000BF91AF919F918F917F916F915F914F914F
:1011E0003F912F910F900BBE0F900FBE0F901F904D
:1011F00018951F920F920FB60F920BB60F921124F3
:101200002F933F934F935F936F937F938F939F930E
:10121000AF93BF93EF93FF93E0914C07F0914D078D
:10122000309709F01995FF91EF91BF91AF919F9180
:101230008F917F916F915F914F913F912F910F907F
:101240000BBE0F900FBE0F901F9018951F920F921C
:101250000FB60F920BB60F9211242F933F934F931B
:101260005F936F937F938F939F93AF93BF93EF930E
:10127000FF93E0914E07F0914F07309709F01995D1
:10128000FF91EF91BF91AF919F918F917F916F915E
:101290005F914F913F912F910F900BBE0F900FBE1A
:1012A0000F901F9018951F920F920FB60F920BB6CA
:1012B0000F9211242F933F934F935F936F937F93DC
:1012C0008F939F93AF93BF93EF93FF93E09150075A
:1012D000F0915107309709F01995FF91EF91BF9167
:1012E000AF919F918F917F916F915F914F913F91BE
:1012F0002F910F900BBE0F900FBE0F901F9018955F
:101300001F920F920FB60F920BB60F9211242F93CC
:101310003F934F935F936F937F938F939F93AF937D
:10132000BF93EF93FF93E0915207F09153073097EB
:1013300009F01995FF91EF91BF91AF919F918F9116
:101340007F916F915F914F913F912F910F900BBEC5
:101350000F900FBE0F901F9018951F920F920FB60F
:101360000F920BB60F9211242F933F934F935F93DD
:101370006F937F938F939F93AF93BF93EF93FF935D
:10138000E0915407F0915507309709F01995FF91B6
:10139000EF91BF91AF919F918F917F916F915F91ED
:1013A0004F913F912F910F900BBE0F900FBE0F905A
:1013B0001F9018951F920F920FB60F920BB60F92B7
:1013C00011242F933F934F935F936F937F938F934A
:1013D0009F93AF93BF93EF93FF93E0915607F091E4
:1013E0005707309709F01995FF91EF91BF91AF9191
:1013F0009F918F917F916F915F914F913F912F912D
:101400000F900BBE0F900FBE0F901F9018951F925C
:101410000F920FB60F920BB60F9211242F933F939A
:101420004F935F936F937F938F939F93AF93BF93EC
:10143000EF93FF93E0915607F0915707309709F02B
:101440001995FF91EF91BF91AF919F918F917F91EE
:101450006F915F914F913F912F910F900BBE0F9025
:101460000FBE0F901F9018951F920F920FB60F92FC
:101470000BB60F9211242F933F934F935F936F936B
:101480007F938F939F93AF93BF93EF93FF93E091DD
:101490005C07F0915D07309709F01995FF91EF9186
:1014A000BF91AF919F918F917F916F915F914F917C
:1014B0003F912F910F900BBE0F900FBE0F901F907A
:1014C00018951F920F920FB60F920BB60F92112420
:1014D0002F933F934F935F936F937F938F939F933C
:1014E000AF93BF93EF93FF93E0915E07F0915F0797
:1014F000309709F01995FF91EF91BF91AF919F91AE
:101500008F917F916F915F914F913F912F910F90AC
:101510000BBE0F900FBE0F901F9018951F920F9249
:101520000FB60F920BB60F9211242F933F934F9348
:101530005F936F937F938F939F93AF93BF93EF933B
:10154000FF93E0916007F0916107309709F01995DA
:10155000FF91EF91BF91AF919F918F917F916F918B
:101560005F914F913F912F910F900BBE0F900FBE47
:101570000F901F9018951F920F920FB60F920BB6F7
:101580000F9211242F933F934F935F936F937F9309
:101590008F939F93AF93BF93EF93FF93E091620775
:1015A000F0916307309709F01995FF91EF91BF9182
:1015B000AF919F918F917F916F915F914F913F91EB
:1015C0002F910F900BBE0F900FBE0F901F9018958C
:1015D0001F920F920FB60F920BB60F9211242F93FA
:1015E0003F934F935F936F937F938F939F93AF93AB
:1015F000BF93EF93FF93E0916407F09165073097F5
:1016000009F01995FF91EF91BF91AF919F918F9143
:101610007F916F915F914F913F912F910F900BBEF2
:101620000F900FBE0F901F9018951F920F920FB63C
:101630000F920BB60F9211242F933F934F935F930A
:101640006F937F938F939F93AF93BF93EF93FF938A
:10165000E0916607F0916707309709F01995FF91BF
:10166000EF91BF91AF919F918F917F916F915F911A
:101670004F913F912F910F900BBE0F900FBE0F9087
:101680001F9018951F920F920FB60F920BB60F92E4
:1016900011242F933F934F935F936F937F938F9377
:1016A0009F93AF93BF93EF93FF93E0916807F091FF
:1016B0006907309709F01995FF91EF91BF91AF91AC
:1016C0009F918F917F916F915F914F913F912F915A
:1016D0000F900BBE0F900FBE0F901F9018951F928A
:1016E0000F920FB60F920BB60F9211242F933F93C8
:1016F0004F935F936F937F938F939F93AF93BF931A
:10170000EF93FF93E0916A07F0916B07309709F030
:101710001995FF91EF91BF91AF919F918F917F911B
:101720006F915F914F913F912F910F900BBE0F9052
:101730000FBE0F901F9018951F920F920FB60F9229
:101740000BB60F9211242F933F934F935F936F9398
:101750007F938F939F93AF93BF93EF93FF93E0910A
:101760006C07F0916D07309709F01995FF91EF9193
:10177000BF91AF919F918F917F916F915F914F91A9
:101780003F912F910F900BBE0F900FBE0F901F90A7
:1017900018951F920F920FB60F920BB60F9211244D
:1017A0002F933F934F935F936F937F938F939F9369
:1017B000AF93BF93EF93FF93E0916E07F0916F07A4
:1017C000309709F01995FF91EF91BF91AF919F91DB
:1017D0008F917F916F915F914F913F912F910F90DA
:1017E0000BBE0F900FBE0F901F9018951F920F9277
:1017F0000FB60F920BB60F9211242F933F934F9376
:101800005F936F937F938F939F93AF93BF93EF9368
:10181000FF93E0917007F0917107309709F01995E7
:10182000FF91EF91BF91AF919F918F917F916F91B8
:101830005F914F913F912F910F900BBE0F900FBE74
:101840000F901F9018951F920F920FB60F920BB624
:101850000F9211242F933F934F935F936F937F9336
:101860008F939F93AF93BF93EF93FF93E091720792
:10187000F0917307309709F01995FF91EF91BF919F
:10188000AF919F918F917F916F915F914F913F9118
:101890002F910F900BBE0F900FBE0F901F901895B9
:1018A000AB0190E068E070E00E949511089590E02F
:1018B00068E070E00E94B0110895AB0190E060E232
:1018C00070E00E9495110895CF93DF93C82FD42F15
:1018D00070E080E090E02FEF33E040E050E00E94C5
:1018E000081824E630E040E050E00E943A18A901D0
:1018F000D11154608C2F90E060E270E00E9495114D
:10190000DF91CF91089590E066E270E00E94B011FF
:101910000895DF92EF92FF920F931F93CF93DF937F
:10192000F82EEB0101E911E022C08F2D90E064E276
:1019300070E00E94B011D82EE92E8FE19EE401974D
:10194000F1F700C000000E941A108130910579F46F
:101950002D2D3E2DC217D30718F42C1B3D0B04C0B0
:10196000CE01821B930B9C012B30310518F00150E6
:101970001040D9F6DF91CF911F910F91FF90EF901A
:10198000DF900895CF93DF9390E070E00E94B01154
:10199000EC010E941A108130910509F445C0843091
:1019A000910529F1853091054CF482309105A9F01B
:1019B00083309105BCF4009759F034C0863091050E
:1019C00001F186309105C4F08730910559F51EC0AC
:1019D0000F920F9280EB94E01DC00F920F928DEC4E
:1019E00094E018C00F920F9288EE94E013C00F920B
:1019F0000F9282E095E00EC00F920F928DE195E07C
:101A000009C00F920F928AE395E004C00F920F92E3
:101A100086E595E0EDB7FEB7928381830E94BA1800
:101A20000F900F90C8E8D3E1CE01DF91CF910895D8
:101A300064E20E94C20C089584309105B9F08530AB
:101A400091053CF48230910571F083309105E9F401
:101A500010C08630910599F0863091056CF0873082
:101A6000910599F40FC082E795E011C083EA95E0F3
:101A70000EC08FEC95E00BC082E096E008C08FE2CC
:101A800096E005C08AE596E002C083E896E00E94F1
:101A9000CC1808950F931F93CF93DF93182FEB016A
:101AA000042F90E06EE170E0AE010E9495110E945B
:101AB0001A108130910539F4013039F4812FBE01BB
:101AC0000E94890C02C00E941C0DDF91CF911F91D2
:101AD0000F9108950E944A0D089581E090E00E94C0
:101AE0002D108130910521F48FE996E00E94CC18E9
:101AF00082E090E00E942D108130910521F484EB6A
:101B000096E00E94CC1884E090E00E942D10813075
:101B1000910521F487EC96E00E94CC1888E090E0D3
:101B20000E942D108130910521F487ED96E00E94EE
:101B3000CC1880E190E00E942D108130910521F4B5
:101B40008BEE96E00E94CC1880E290E00E942D106F
:101B50008130910521F48BEF96E00E94CC1880E44F
:101B600090E00E942D108130910521F48BE097E0E8
:101B70000E94CC1808953F924F925F926F927F928D
:101B80008F929F92AF92BF92CF92DF92EF92FF928D
:101B90000F931F93CF93DF9300D00F92CDB7DEB793
:101BA000A82E062FE72E322E8EEF90E049835A831F
:101BB0000E941F1083E890E00E94221080E090E0D5
:101BC0006EE170E00E94251081E090E062E070E03C
:101BD0000E942510402E5E2C4981642E5A81752E5C
:101BE0007301420102E010E0CC24DD24BB2424C0B8
:101BF000F40161914F01C80170E00E942510089422
:101C0000C11CD11CFC82EB82F701819191917F0173
:101C10000E944710BC01C80101960E942510EB816B
:101C2000FC81808191810E944B10BC01C801029609
:101C30000E9425100D5F1F4FCA14DB04CCF2C501B2
:101C4000880F991F8A0D9B1D04960E942A100E94DE
:101C500084110E941A1081309105C1F40E946D0D0B
:101C6000F1E03F16A9F40CC0F301619171913F01BD
:101C7000F20181912F010E94890C0F5F1F4F02C05A
:101C800000E010E00A151B057CF302C00E941C0D49
:101C90000F900F900F900F90DF91CF911F910F91A8
:101CA000FF90EF90DF90CF90BF90AF909F908F907C
:101CB0007F906F905F904F903F900895CF93DF9308
:101CC0000F920F92CDB7DEB7982F9150963030F02B
:101CD0006A8389830E94C20089816A81662389F0B0
:101CE00041B128E030E0281B310981E090E002C0DA
:101CF000880F991F2A95E2F7482B41B992B1982B8A
:101D000092B987E980937A000F900F90DF91CF917D
:101D10000895CF93DF930F920F92CDB7DEB7982F30
:101D20009150963030F06A8389830E94C200898185
:101D30006A81662391F092B148E050E0481B510956
:101D400021E030E002C0220F331F4A95E2F72095D0
:101D5000292322B920E42A95F1F780937C00909101
:101D60007A00906190937A0090917A0090649093B9
:101D70007A0090917A0094FFFCCF662371F042B113
:101D800028E030E0281B310981E090E002C0880F94
:101D9000991F2A95E2F7482B42B9809178009091DB
:101DA0007900E2E080309E0710F08FEF91E0969589
:101DB00087950F900F90DF91CF9108950E94741630
:101DC0009B01AC0160E074E284EF99E40E94DE15AF
:101DD0000E9446166150704082E48093C80088E9F2
:101DE0008093C90086E08093CA008FEF8093CE0075
:101DF0001092750710927407872F992787FD9A957F
:101E00008093CD006093CC007298739A81E29FE03A
:101E100068E97FE00E9470189093F9078093F807B3
:101E20000895FC0180E090E008C02091C80025FFE3
:101E3000FCCF21912093CE00019686179707ACF333
:101E40000895CF93DF9300D00F92CDB7DEB78A30DD
:101E500041F49DE099838A83CE01019662E070E0AF
:101E600005C08B83CE01039661E070E00E94110FE4
:101E700080E090E00F900F900F900F90DF91CF9146
:101E8000089590917507809174079817C1F090910B
:101E9000750780917407981740F48091740720911A
:101EA000750790E0821B9109089580917407209135
:101EB000750790E0821B910980589F4F089580E03C
:101EC00090E00895CF93C82F0E94410F8F3791055E
:101ED00091F0E0917407F0E0EA58F84FC0838091E8
:101EE00074078F3719F41092740705C08091740736
:101EF0008F5F80937407CF910895909175078091BB
:101F00007407981799F0E0917507F0E0EA58F84FD8
:101F10008081909175079F3719F410927507089585
:101F2000909175079F5F9093750708958FEF0895BF
:101F30000E94410F0097E1F30E947D0F8D3009F45C
:101F40008AE090E00895CF92DF92EF92FF920F9394
:101F50001F93CF93DF936C01EB01909175078091F4
:101F600074079817B1F00E94410F8C01C817D90768
:101F70000CF48E017601C0E0D0E006C00E947D0F17
:101F8000F70181937F012196C017D107BCF3802F01
:101F900001C080E0DF91CF911F910F91FF90EF90F2
:101FA000DF90CF9008951F920F920FB60F920BB64D
:101FB0000F9211242F933F934F935F936F937F93CF
:101FC0008F939F93AF93BF93EF93FF938091CE0036
:101FD0000E94620F8091F6079091F707009729F011
:101FE000E091F607F091F7071995FF91EF91BF91F6
:101FF000AF919F918F917F916F915F914F913F91A1
:102000002F910F900BBE0F900FBE0F901F90189541
:102010002FB7F8949093F7078093F6072FBF089592
:102020008BB18F758BB95E9A08955E988BB1806A7B
:102030008BB9089580912307909124070895809388
:10204000FC0708958093FE070895FC01E650F84FC1
:10205000658308958093FD07089520E030E0909116
:102060009E08982311F021E030E0C9010895809185
:102070009D0890E00895FC01E656F74F858190E0B9
:102080000895362F20E0280F391FC9010895282F01
:1020900030E0C90108958070892F90E008950F9372
:1020A0001F93CF93DF938091E2089091E308892BEF
:1020B00009F4BBC08091FC078E3F09F4ACC080914D
:1020C000230790912407892B29F41092E10886E0D8
:1020D0008093E0088091E10890E06091E00870E072
:1020E000681B790B8656974F0E94CE139091E1089A
:1020F000980F9093E1088091E008981720F40E94CF
:10210000D812019771F07091E108472F50E0DA0181
:1021100011978A010250104060E0ED01C656D74F7A
:1021200018C08091E108882309F072C086E090E031
:1021300074C0F901E656F74F80818F3F19F4818111
:102140008F3F61F02017310719F488818F3F31F0FC
:102150006F5F262F30E02A173B075CF36623A1F060
:1021600090E0421B530B08C0E656F74FDF01A20F69
:10217000B31F8C9180839F5FE92FF0E0E417F50790
:102180009CF3761B7093E1082091E1088091E008B0
:10219000281730F19091FC0780919C089817C1F5A1
:1021A00060919D086C5F6093E008261790F4822F81
:1021B00090E070E0681B790B8656974F0E94CE1313
:1021C0009091E108980F9093E1088091E0089817AA
:1021D00038F080919D08A82FB0E020E090E00CC07E
:1021E00085E090E090932407809323071EC0E65675
:1021F000F74F8281980F2F5FE22FF0E0AE17BF07F5
:10220000B4F7A656B74F909513968C91891719F08D
:1022100087E090E002C081E090E0909324078093F3
:1022200023071092E3081092E208DF91CF911F91EB
:102230000F9108951F938091E2089091E308019710
:1022400009F460C081E090E09093E3088093E20895
:102250008091FD07893940F49091FE07892F8150C4
:10226000863028F0933819F084E090E031C08FEF89
:102270008093FA078093FB078091FD07A82FB0E0B9
:1022800020E090E005C0E650F84F8281980F2F5F64
:10229000E22FF0E0AE17BF07B4F7A650B84F909505
:1022A00013969C9380912307909124070697029799
:1022B00010F40E949E121091FD071C5F8AEF97E0B8
:1022C000612F70E00E94A312181759F082E090E08D
:1022D00090932407809323071092E3081092E2085A
:1022E00011C08091FE07823029F48091000890E0AF
:1022F000069602C086E090E00E94C7121092240762
:10230000109223071F9108950E941A1180912307AC
:1023100090912407892B41F40E944F10809123074C
:10232000909124070597C1F30895282F8091E20822
:102330009091E308892B99F42093FC0783E0809324
:10234000FE076093FF07CA014093000880709093D6
:10235000010885E08093FD070E9484110895FFCF56
:10236000282F8091E2089091E308892BB9F42093FB
:10237000FC0782E08093FE076093FF0780930008CC
:1023800084E08093FD070E9484113091A00820E032
:1023900080919F08280F311DC9010895FFCF282F74
:1023A0008091E2089091E308892B79F42093FC074F
:1023B00083E08093FE076093FF074093000884E06A
:1023C0008093FD070E9484110895FFCF282F8091EC
:1023D000E2089091E308892B99F42093FC0782E0AE
:1023E0008093FE076093FF0781E08093000884E0FC
:1023F0008093FD070E94841180919F0890E00895CA
:10240000FFCF282F8091E2089091E308892B59F49F
:102410002093FC0781E08093FE0782E08093FD0714
:102420000E9484110895FFCF0E949D1208950F937A
:102430001F938C016F5F7F4F882777FD8095982FC2
:102440000E9474169B01AC0160E074E284EF99E491
:102450000E94DE15AB01BC01C8010E944412892B09
:1024600019F420E030E00CC081E090E09093240764
:10247000809323071092E3081092E20821E030E0F5
:10248000C9011F910F910895EF92FF920F931F932F
:102490007A018B0182E48093C00088E98093C100B7
:1024A00086E08093C20060E074E284EF99E4A801C2
:1024B00097010E94DE150E9446166150704070938D
:1024C000C5006093C40060E074E284E799E4A80169
:1024D00097010E94DE1520E030E040E451E40E94C4
:1024E00061176093E8097093E9098093EA09909372
:1024F000EB092091E8093091E9094091EA095091EE
:10250000EB0960E070E08AE793E40E94DE150E9428
:1025100046167093E7096093E6097298739A8FEFF5
:102520008093C6001092E4091092E50981E090E0E2
:102530001F910F91FF90EF90089508958091E50904
:102540008093E4090895AC01F8947398729A20E09E
:1025500030E011C08091C00085FFFCCF8091C000A9
:1025600080648093C000FA01E20FF31F80818093A2
:10257000C6002F5F3F4F2617370764F38091C000D6
:1025800086FFFCCF7298739A7894C90108951092CF
:10259000EF091092EE092091E6093091E709265FD4
:1025A0003F4F280F391F3093ED092093EC09089510
:1025B000AF92BF92CF92DF92EF92FF920F931F9351
:1025C0008091EE099091EF0901969093EF09809325
:1025D000EE092091EE093091EF098091EC0990917C
:1025E000ED098217930718F421E030E074C0A09041
:1025F000E809B090E909C090EA09D090EB09C6015A
:10260000B5012BEA3AEA4AEA50E40E9461177B01DD
:102610008C0120E030E040E85FE30E94D71588237A
:1026200014F461E054C0C801B70120E030E04FE786
:1026300053E40E945D1718160CF045C0C601B501A1
:1026400020E030E04AE754E40E94DE155B016C01B3
:1026500020E030E04AE755E40E9461177B018C01DD
:1026600020E030E040E85FE30E94D71588231CF4A7
:1026700061E070E024C0C801B70120E03FEF4FE700
:1026800057E40E945D171816B4F4C601B50120E0A6
:1026900030E040E251E40E9461170E94461680E952
:1026A00091E005C0FC013197F1F761507040611570
:1026B0007105C1F70EC0C801B7010E944616CB01D3
:1026C0000197F1F706C0C801B7010E9446166A9546
:1026D000F1F720E030E0C9011F910F91FF90EF90DA
:1026E000DF90CF90BF90AF9008959091E4098091D2
:1026F000E509981719F420E030E017C09091E4093B
:102700008091E509981738F48091E5099091E409E2
:10271000282F30E008C08091E5099091E409282F26
:1027200030E020503F4F291B3109C90108951F9304
:10273000182F0E9475138F3F910591F0E091E509E4
:10274000F0E0EC51F74F10838091E5098F3F19F4C9
:102750001092E50905C08091E5098F5F8093E50936
:102760001F9108959091E4098091E509981711F45B
:10277000EFEF12C0E091E409F0E0EC51F74FE08197
:102780008091E4098F3F19F41092E40905C080910B
:10279000E4098F5F8093E4098E2F0895EF92FF92F2
:1027A0000F931F93CF93DF937C01EB019091E4098A
:1027B0008091E509981719F400E010E014C00E9418
:1027C00075138C01C817D9070CF48E01C0E0D0E056
:1027D00007C00E94B213F701EC0FFD1F8083219602
:1027E000C017D107B4F3C801DF91CF911F910F91AA
:1027F000FF90EF9008951F920F920FB60F920BB6B5
:102800000F9211242F933F934F935F936F937F9376
:102810008F939F93AF93BF93EF93FF938091C600E5
:102820000E949713FF91EF91BF91AF919F918F916C
:102830007F916F915F914F913F912F910F900BBEC0
:102840000F900FBE0F901F901895CF93DF93CDB7C9
:10285000DEB7CF55D1400FB6F894DEBF0FBECDBF67
:1028600080E090E061E070E00E94171260E071EE9D
:1028700080E090E00E94DE0E0E94101087E392E05C
:102880000E94081080E061E043E453E00E94D60714
:1028900080E061E049EF50E00E940B0780E062E4D5
:1028A00043E420E030E00E94AD070E94200181E077
:1028B0006AE373E00E94F30082E060E00E945E0E33
:1028C00086E061E00E945E0E81E061E00E945E0EA3
:1028D0007894DE011496EEE7F3E08CE001900D921F
:1028E0008150E1F78E010C5F1F4F86E06AEA74E0C9
:1028F000A80121E00E94BB0D1B821A82198220E0F0
:1029000030E0A901C85ADE4F288339834A835B83AC
:10291000C855D14029013A01CC5ADE4F288339836A
:102920004A835B83C455D1408824C05BDE4F188244
:1029300019821A821B82C055D14018018FB7F894B2
:10294000D090430720913D0730913E0740913F07CB
:1029500050914007C45ADE4F288339834A835B83F2
:10296000CC55D14090903C078FBF82E060E00E9440
:10297000890E9C01CE01805B9F4F60E8AE014D5FE8
:102980005F4FCC5ADE4FE880F9800A811B81C45525
:10299000D1400E944504CC5ADE4F688379838A83F4
:1029A0009B83C455D14086E060E00E94890E9C0163
:1029B000CE01C09660E1AE014E5F5F4F83017201B0
:1029C0000E9445042B013C0181E060E00E94890ED9
:1029D0009C01CE01409660E1AE014F5F5F4FC85A47
:1029E000DE4FE880F9800A811B81C855D1400E94E2
:1029F0004504C85ADE4F688379838A839B83C85510
:102A0000D140DD2009F46BC080914207882301F199
:102A1000892DBE01605B7F4FCC5ADE4F2881398102
:102A20004A815B81C455D14083017201C85ADE4F8F
:102A3000A880B980CA80DB80C855D1400E94AC0410
:102A4000891531F09FB7F89480933C079FBF982E6B
:102A5000981499F086E06AEA74E0A10121E00E94EE
:102A6000BB0D80E00E94A807892CC05BDE4F188256
:102A700019821A821B82C055D140C45ADE4F888108
:102A80009981AA81BB81CC55D140C05BDE4F2881A2
:102A900039814A815B81C055D140821B930BA40BC5
:102AA000B50B85319105A105B105C8F0C45ADE4FBB
:102AB00088819981CC55D140692D0E947603C45AF2
:102AC000DE4F88819981AA81BB81CC55D140C05B02
:102AD000DE4F88839983AA83BB83C055D1400E946F
:102AE0006D0D2CCF5058BB27AA270ED09BC164D1A7
:102AF00030F069D120F031F49F3F11F41EF459C138
:102B00000EF4E095E7FB4FC1E92FAED180F3BA1781
:102B1000620773078407950718F071F49EF5C6C124
:102B20000EF4E0950B2EBA2FA02D0B01B9019001E8
:102B30000C01CA01A0011124FF27591B99F0593F2C
:102B400050F4503E68F11A16F040A22F232F342F74
:102B50004427585FF3CF469537952795A795F040C2
:102B60005395C9F77EF41F16BA0B620B730B840BD7
:102B7000BAF09150A1F0FF0FBB1F661F771F881F8F
:102B8000C2F70EC0BA0F621F731F841F48F48795E7
:102B900077956795B795F7959E3F08F0B3CF9395D6
:102BA000880F08F09927EE0F979587950895D7D04D
:102BB00008F481E008950FD1E39545C10CD032C1EE
:102BC00002D140F0F9D030F021F45F3F19F0EBC0B2
:102BD00051116DC1EEC048D198F39923C9F3552323
:102BE000B1F3951B550BBB27AA2762177307840700
:102BF00038F09F5F5F4F220F331F441FAA1FA9F3B6
:102C000033D00E2E3AF0E0E830D091505040E695A7
:102C1000001CCAF729D0FE2F27D0660F771F881F08
:102C2000BB1F261737074807AB07B0E809F0BB0BF7
:102C3000802DBF01FF2793585F4F2AF09E3F51051B
:102C400068F0B1C034C15F3FECF3983EDCF3869589
:102C500077956795B795F7959F5FC9F7880F911D91
:102C60009695879597F90895E1E0660F771F881F7D
:102C7000BB1F621773078407BA0720F0621B730B30
:102C8000840BBA0BEE1F88F7E0950895F5D088F015
:102C90009F5790F0B92F9927B751A0F0D1F0660F48
:102CA000771F881F991F1AF0BA95C9F712C0B13063
:102CB00081F0FCD0B1E00895F9C0672F782F882704
:102CC000B85F39F0B93FCCF3869577956795B395A2
:102CD000D9F73EF490958095709561957F4F8F4F11
:102CE0009F4F0895E89409C097FB3EF49095809516
:102CF000709561957F4F8F4F9F4F9923A9F0F92FC2
:102D000096E9BB279395F695879577956795B7953F
:102D1000F111F8CFFAF4BB0F11F460FF1BC06F5F25
:102D20007F4F8F4F9F4F16C0882311F096E911C037
:102D3000772321F09EE8872F762F05C0662371F058
:102D400096E8862F70E060E02AF09A95660F771F6C
:102D5000881FDAF7880F9695879597F90895990F48
:102D60000008550FAA0BE0E8FEEF16161706E80755
:102D7000F907C0F012161306E407F50798F0621B76
:102D8000730B840B950B39F40A2661F0232B242B4B
:102D9000252B21F408950A2609F4A140A6958FEF6A
:102DA000811D811D089597F99F6780E870E060E0BC
:102DB00008959FEF80EC089500240A9416161706D4
:102DC00018060906089500240A941216130614061C
:102DD00005060895EECF50D0E8F3E894E0E0BB2775
:102DE0009F57F0F02AED3FE049EC06C0EE0FBB0F15
:102DF000661F771F881F28F0B23A6207730784079F
:102E000028F0B25A620B730B840BE3959A9572F714
:102E1000803830F49A95BB0F661F771F881FD2F752
:102E20009048B4C0092E0394000C11F4882352F08A
:102E3000BB0F40F4BF2B11F460FF04C06F5F7F4FE6
:102E40008F4F9F4F0895EF93E0FF06C0A2EA2AED4F
:102E50003FE049EC5FEB58DEE5DF0F90039401FCA7
:102E60009058ECECF0E09EC057FD9058440F551F71
:102E700059F05F3F71F04795880F97FB991F61F0FC
:102E80009F3F79F087950895121613061406551F73
:102E9000F2CF4695F1DF08C0161617061806991FDF
:102EA000F1CF86957105610508940895E894BB27D4
:102EB00066277727CB0197F9089551DF08F48FEF44
:102EC00008950BD0AFCF78DF28F07DDF18F0952381
:102ED00009F069CF6ECF1124EACFC6DFA0F3959F2A
:102EE000D1F3950F50E0551F629FF001729FBB27F1
:102EF000F00DB11D639FAA27F00DB11DAA1F649F9D
:102F00006627B00DA11D661F829F2227B00DA11D4F
:102F1000621F739FB00DA11D621F839FA00D611DD5
:102F2000221F749F3327A00D611D231F849F600DF6
:102F3000211D822F762F6A2F11249F5750408AF02F
:102F4000E1F088234AF0EE0FFF1FBB1F661F771FBB
:102F5000881F91505040A9F79E3F510570F023CF34
:102F6000A6CF5F3FECF3983EDCF3869577956795A7
:102F7000B795F795E7959F5FC1F7FE2B880F911DD9
:102F80009695879597F908959F3F31F0915020F4D9
:102F9000879577956795B795880F911D9695879535
:102FA00097F908959F938F937F936F93FF93EF9378
:102FB0009B01AC0186DFEF91FF9105D02F913F91EE
:102FC0004F915F917ECFDF93CF931F930F93FF922B
:102FD000EF92DF927B018C01689405C0DA2EEF013D
:102FE0007CDFFE01E894A59125913591459155919D
:102FF000AEF3EF0189DDFE019701A801DA9479F7BC
:10300000DF90EF90FF900F911F91CF91DF91089586
:10301000629FD001739FF001829FE00DF11D649FBC
:10302000E00DF11D929FF00D839FF00D749FF00D48
:10303000659FF00D9927729FB00DE11DF91F639FE9
:10304000B00DE11DF91FBD01CF011124089597FBBB
:10305000092E07260AD077FD04D02ED006D00020F6
:103060001AF4709561957F4F0895F6F790958195C4
:103070009F4F0895A1E21A2EAA1BBB1BFD010DC094
:10308000AA1FBB1FEE1FFF1FA217B307E407F50718
:1030900020F0A21BB30BE40BF50B661F771F881FF4
:1030A000991F1A9469F760957095809590959B018A
:1030B000AC01BD01CF010895AA1BBB1B51E107C0A4
:1030C000AA1FBB1FA617B70710F0A61BB70B881FB8
:1030D000991F5A95A9F780959095BC01CD01089547
:1030E0000F931F93CF93DF938C01EB01009711F4A3
:1030F0002097C1F181E090E06EE070E00E94011B3A
:10310000FC01009789F180E88383209771F0D387D1
:10311000C28781E883838091F0099091F10900973B
:1031200021F4F093F109E093F00901151105E1F0A4
:10313000118700878381826083838091F209909157
:10314000F309009789F4F093F309E093F209809171
:10315000F4099091F509009739F4F093F509E0939B
:10316000F40902C0E0E0F0E0CF01DF91CF911F91C0
:103170000F910895CF93DF93CDB7DEB7FE0136965A
:10318000619171918091F2099091F309AF010E94D0
:10319000FA18DF91CF9108950F931F93CF93DF9388
:1031A0008C01E091F209F091F309838181FF1AC04B
:1031B000C0E0D0E005C01995009711F0CFEFDFEF28
:1031C000F80181918F016091F2097091F309DB019F
:1031D0001896ED91FC911997882369F78AE0199563
:1031E000009711F0CFEFDFEFCE01DF91CF911F916C
:1031F0000F9108952F923F924F925F926F927F921C
:103200008F929F92AF92BF92CF92DF92EF92FF92F6
:103210000F931F93CF93DF93CDB7DEB72D970FB6E4
:10322000F894DEBF0FBECDBF3C017D876C875A018D
:10323000FC0117821682838181FFC8C12E01089488
:10324000411C511CF3019381EC85FD8593FD859113
:1032500093FF8191FD87EC87882309F4B3C1853200
:1032600041F493FD859193FF8191FD87EC87853231
:1032700029F490E0B3010E946B1CE4CFFF24EE24FC
:1032800010E01032B0F48B3269F08C3228F48032C6
:1032900051F0833271F40BC08D3239F0803349F430
:1032A00011602CC01260146029C0186027C0106122
:1032B00025C017FD2EC0282F20532A3098F416FF62
:1032C00008C08F2D880FF82EFF0CFF0CF80EF20EA1
:1032D00015C08E2D880FE82EEE0CEE0CE80EE20ED7
:1032E00010620CC08E3221F416FD6CC1106406C051
:1032F0008C3611F4106802C0883659F4EC85FD85CF
:1033000093FD859193FF8191FD87EC87882309F0D8
:10331000B8CF982F9554933018F09052933038F4DA
:1033200024E030E0A20EB31E3FE339830FC08336A2
:1033300031F0833781F0833509F05AC022C0F5019E
:103340008081898322E030E0A20EB31E21E0C22EEC
:10335000D12C420114C092E0292E312C2A0C3B1CA6
:10336000F5018080918016FF03C06F2D70E002C0D0
:103370006FEF7FEFC4010E94601C6C0151011F7749
:1033800015C082E0282E312C2A0C3B1CF5018080D0
:10339000918016FF03C06F2D70E002C06FEF7FEFCA
:1033A000C4010E944E1C6C011068510113FD1CC029
:1033B00006C080E290E0B3010E946B1CEA948E2D5F
:1033C00090E0C816D906A8F30FC0F40117FD859147
:1033D00017FF81914F0190E0B3010E946B1CE11037
:1033E000EA940894C108D108C114D10471F7E7C068
:1033F000843611F0893651F5F50117FF07C0808139
:103400009181A281B38124E030E008C08081918164
:10341000AA2797FDA095BA2F22E030E0A20EB31E96
:10342000012F0F76B7FF08C0B095A09590958195B4
:103430009F4FAF4FBF4F0068BC01CD01A2012AE0F2
:1034400030E00E94971CD82ED4183FC0853721F455
:103450001F7E2AE030E020C0197F8F36A9F0803728
:1034600020F4883509F0AEC00BC0803721F08837D2
:1034700009F0A8C001C0106114FF09C0146007C0A2
:1034800014FF08C0166006C028E030E005C020E147
:1034900030E002C020E132E0F50117FF07C0608193
:1034A00071818281938144E050E006C06081718126
:1034B00080E090E042E050E0A40EB51EA2010E9420
:1034C000971CD82ED418012F0F7706FF09C00E7F46
:1034D000DF1430F404FF06C002FD04C00F7E02C0FA
:1034E0001D2D01C01F2D802F90E004FF0CC0FE0198
:1034F000ED0DF11D2081203311F4097E09C002FF7A
:1035000006C01E5F05C086789070009709F01F5FA7
:10351000802E992403FD12C000FF0DC0FD2C1E1546
:1035200050F4FE0CF11A1E2D06C080E290E0B301AB
:103530000E946B1C1F5F1E15C0F304C01E1510F403
:10354000E11A01C0EE2484FE0FC080E390E0B301D5
:103550000E946B1C82FE1FC081FE03C088E590E0C4
:1035600010C088E790E00DC0C40186789070009785
:1035700091F081FC02C080E201C08BE207FD8DE288
:1035800090E0B3010E946B1C06C080E390E0B301A1
:103590000E946B1CFA94DF14C0F3DA94F201ED0D73
:1035A000F11D808190E0B3010E946B1CDD20A9F722
:1035B00006C080E290E0B3010E946B1CEA94EE200A
:1035C000C1F740CEF3018681978102C08FEF9FEF54
:1035D0002D960FB6F894DEBF0FBECDBFDF91CF9111
:1035E0001F910F91FF90EF90DF90CF90BF90AF9021
:1035F0009F908F907F906F905F904F903F902F9013
:1036000008950F931F93CF93DF93689F8001699F65
:10361000100D789F100D1124C8010E941F1BC82F88
:10362000D92F209731F08C2F60E070E0A8010E9424
:10363000591CCE01DF91CF911F910F910895CF9327
:10364000DF93AC018230910510F442E050E0E0914C
:10365000F809F091F90920E030E0A0E0B0E024C0E2
:103660008081918184179507D0F08417950771F4B4
:1036700082819381109729F013969C938E931297D1
:103680002CC09093F9098093F80927C021153105C2
:1036900019F08217930718F49C01BD01EF01928184
:1036A0008381DF01E92FF82F3097D1F621153105FD
:1036B000F9F0C901841B950B8430910580F48A814F
:1036C0009B816115710521F0FB019383828304C006
:1036D0009093F9098093F809FE01329642C0FE01E9
:1036E000E80FF91F4193519302979983888339C05A
:1036F0008091F6099091F709009741F4809127078E
:10370000909128079093F7098093F6092091250757
:10371000309126072115310541F42DB73EB7809130
:10372000290790912A07281B390BE091F609F0919F
:10373000F709E217F30798F42E1B3F0B2417350700
:1037400070F0CA0102962817390748F08E0F9F1FA4
:103750009093F7098093F6094193519302C0E0E0FA
:10376000F0E0CF01DF91CF9108950F931F93CF9396
:10377000DF939C01009709F48CC0DC01129713962B
:103780001C921E9212976091F8097091F9096115C7
:10379000710589F48D919C911197820F931F20914F
:1037A000F6093091F7092817390769F5B093F70939
:1037B000A093F6096EC0FB0140E050E001C0FC019F
:1037C000EA17FB0730F482819381AF010097B9F7C4
:1037D0001FC0E9012297FB83EA8308811981C9018F
:1037E000800F911F8E179F0759F480819181800F60
:1037F000911F029699838883828193819B838A8318
:103800004115510529F4B093F909A093F80941C075
:10381000FA01B383A283C191D191EC0FFD1FAE17C2
:10382000BF0781F4F901929182918C0F9D1F02963E
:10383000DA0111969C938E938281938113969C93C7
:103840008E931297E0E0F0E002C0FB01BC01DB01C7
:1038500012968D919C9113970097B9F7CB01029620
:103860002D913C911197820F931F2091F609309171
:10387000F7092817390769F4309729F41092F909E4
:103880001092F80902C0138212827093F7096093B4
:10389000F609DF91CF911F910F910895FC010590DA
:1038A000615070400110D8F7809590958E0F9F1F42
:1038B0000895DC0101C06D9341505040E0F7089538
:1038C000FC016150704001900110D8F780959095EF
:1038D0008E0F9F1F08950F931F93CF93DF938C013B
:1038E000EB018B8181FF1BC082FF0DC02E813F81C8
:1038F0008C819D812817390764F4E881F98101934F
:10390000F983E88306C0E885F985802F199500972B
:1039100031F48E819F8101969F838E8302C00FEFC9
:103920001FEFC801DF91CF911F910F910895FA0108
:10393000AA27283051F1203181F1E8946F936E7FEE
:103940006E5F7F4F8F4F9F4FAF4FB1E03ED0B4E0DF
:103950003CD0670F781F891F9A1FA11D680F791F20
:103960008A1F911DA11D6A0F711D811D911DA11D31
:1039700020D009F468943F912AE0269F1124301941
:10398000305D3193DEF6CF010895462F4770405DDC
:103990004193B3E00FD0C9F7F6CF462F4F70405D8B
:1039A0004A3318F0495D31FD4052419302D0A9F7E6
:1039B000EACFB4E0A6959795879577956795BA95E0
:1039C000C9F700976105710508959B01AC010A2EA6
:1039D00006945795479537952795BA95C9F7620F7D
:0E39E000731F841F951FA01D0895F894FFCF3C
:1039EE000A506F736974696F6E73206F66206D6F06
:1039FE00746F72733A004D6F746F7220256420706D
:103A0E006F736974696F6E2069732025750A005390
:103A1E00656E736F72733A2046726F6E743A20251C
:103A2E0033752C204C6566743A202533752C205244
:103A3E00696768743A202533752E0A00476F696EE0
:103A4E006720666F72776172642E00476F696E67CA
:103A5E00206261636B776172642E00476F696E67D7
:103A6E00206C6566742E00476F696E6720726967F9
:103A7E0068742E005573696E67205A6967426565D2
:103A8E0020636F6E6E656374696F6E2E0055736979
:103A9E006E6720776972656420636F6E6E656374FE
:103AAE00696F6E2E004175746F6E6F6D6F7573203A
:103ABE00636F6E74726F6C20616374697661746586
:103ACE00642E004175746F6E6F6D6F757320636F2A
:103ADE006E74726F6C20646561637469766174656F
:103AEE00642E00476F696E672072696768742C20B8
:103AFE0073656E736F723A20252E30662E0A00475C
:103B0E006F696E6720666F72776172642C207365C1
:103B1E006E736F723A20252E30662E0A00466F7530
:103B2E006E64206C6566742077616C6C2C207365F6
:103B3E006E736F723A20252E30662E0A00466F7510
:103B4E006E642072696768742077616C6C2C2073C8
:103B5E00656E736F723A20252E30662E0A000002B3
:103B6E000002000200020002000276021802140196
:103B7E0014011802760276021802140114011802BA
:103B8E007602FF02F001AF01AF01F001FF02FF026A
:103B9E00F001AF01AF01F001FF02920A863F920AD7
:103BAE00863F00000000DB0F4940920A863F920AD2
:103BBE00863F920A863F920A863FDB0F49400000FD
:103BCE000000920A863F920A863F00000000920A89
:103BDE00863FDB0FC93FDB0FC93F920A863FDB0FE3
:103BEE004940DB0F4940920A863FDB0FC93FDB0F8E
:103BFE00C93F920A863F000000000000803F00008F
:103C0E00803F0000803F0000803F0000803F0000AA
:103C1E00803F0000803F0000803F0000803F00009A
:103C2E00803F0000803F0000803F0000803F00008A
:103C3E00803F0000803F0000803F0000803F00007A
:103C4E00803F0000803F0000803F0000803F00006A
:103C5E00803F0000803F0000803F3C001600EC00DB
:103C6E00EC0016003C003C001600EC00EC001600C8
:103C7E003C00E3001000510051001000E300E3008F
:103C8E001000510051001000E30006010308020568
:103C9E0052656164207374617475733A20434F4D9D
:103CAE004D5F54585355434345535320005265615D
:103CBE0064207374617475733A2020434F4D4D5FC9
:103CCE0054584641494C200052656164207374611A
:103CDE007475733A20434F4D4D5F52584641494CCF
:103CEE00200052656164207374617475733A2043C9
:103CFE004F4D4D5F54584552524F52200052656100
:103D0E0064207374617475733A20434F4D4D5F5246
:103D1E005857414954494E472000526561642073FB
:103D2E0074617475733A434F4D4D5F525854494DFB
:103D3E00454F55542000526561642073746174754B
:103D4E00733A434F4D4D5F5258434F525255505454
:103D5E002000434F4D4D5F54584641494C3A204642
:103D6E0061696C6564207472616E736D697420692B
:103D7E006E737472756374696F6E207061636B65B8
:103D8E00742100434F4D4D5F54584552524F523A95
:103D9E0020496E636F727265637420696E737472FC
:103DAE00756374696F6E207061636B657421004377
:103DBE004F4D4D5F52584641494C3A204661696C11
:103DCE006564206765742073746174757320706107
:103DDE00636B65742066726F6D20646576696365CA
:103DEE002100434F4D4D5F525857414954494E475C
:103DFE003A204E6F7720726563656976696E67202B
:103E0E00737461747573207061636B657421004304
:103E1E004F4D4D5F525854494D454F55543A2054CD
:103E2E0068657265206973206E6F20737461747596
:103E3E0073207061636B65742100434F4D4D5F526B
:103E4E0058434F52525550543A20496E636F727216
:103E5E0065637420737461747573207061636B6530
:103E6E007421005468697320697320756E6B6E6FD0
:103E7E00776E206572726F7220636F6465210049E0
:103E8E006E70757420766F6C7461676520657272E2
:103E9E006F722100416E676C65206C696D697420CC
:103EAE006572726F7221004F76657268656174205B
:103EBE006572726F7221004F7574206F6620726189
:103ECE006E6765206572726F722100436865636B61
:103EDE0073756D206572726F7221004F7665726C0C
:103EEE006F6164206572726F722100496E73747215
:103EFE00756374696F6E20636F6465206572726F8F
:0C3F0E0072210001000000FA09200000F0
:00000001FF
