:100000000C9466000C9411010C943E010C94870032
:100010000C9487000C946B010C9498010C94C5010E
:100020000C94F2010C9487000C9487000C948700C8
:100030000C9487000C9494060C94C1060C946706EB
:100040000C9487000C94E0050C940D060C943A0671
:100050000C94B3050C9459050C9486050C942C054E
:100060000C9487000C9487000C9487000C948700F4
:100070000C9487000C9487000C9487000C948700E4
:100080000C941B070C9448070C9475070C94EE060F
:100090000C94E6090C9487000C9487000C9487005C
:1000A0000C9487000C9487000C94CF070C94FC07E9
:1000B0000C9429080C94A2070C9487000C948308D4
:1000C0000C94B0080C94DD080C94560811241FBE43
:1000D000CFEFD1E2DEBFCDBF00E00CBF13E0A0E068
:1000E000B2E0ECE2FCE100E00BBF02C007900D9231
:1000F000AE30B107D9F713E0AEE0B3E001C01D9216
:10010000AC3DB107E1F70E94AB0A0C94140E0C94BD
:1001100000000F931F93CF93DF934EE020E0C1E0E8
:10012000D0E0E7E0F0E058B1822F90E08E0102C00D
:10013000000F111F2A95E2F7502758B90FEF11EE63
:1001400024E0015010402040E1F700C0000001967B
:10015000BF010E94210C282F415029F7DF91CF9138
:100160001F910F9108950E948900FDCF259A08954F
:1001700087B18F6787B988B18F6788B9089551981B
:10018000599A08958DB18F708DB950988EB1806F46
:100190008EB9589AE9E6F0E080818560808380819D
:1001A000857F8083EAE6F0E08081856580838081B9
:1001B000857580830895837F31F06115710541F065
:1001C0009DB3982B9DBB20E030E0482F50E005C048
:1001D0002DB3982F90959223F5CFCA01022E02C01D
:1001E000959587950A94E2F780FF0AC08FB7F89437
:1001F000F901EE0FFF1FE25FFC4F718360838FBF39
:100200002F5F3F4F2830310541F780E090E008959F
:100210000E94B6000E94B8000E94BF000E94C20067
:1002200008951F920F920FB60F920BB60F921124E2
:100230002F933F934F935F936F937F938F939F93EE
:10024000AF93BF93EF93FF93E0910E03F0910F03F1
:10025000309709F01995FF91EF91BF91AF919F9160
:100260008F917F916F915F914F913F912F910F905F
:100270000BBE0F900FBE0F901F9018951F920F92FC
:100280000FB60F920BB60F9211242F933F934F93FB
:100290005F936F937F938F939F93AF93BF93EF93EE
:1002A000FF93E0911003F0911103309709F0199535
:1002B000FF91EF91BF91AF919F918F917F916F913E
:1002C0005F914F913F912F910F900BBE0F900FBEFA
:1002D0000F901F9018951F920F920FB60F920BB6AA
:1002E0000F9211242F933F934F935F936F937F93BC
:1002F0008F939F93AF93BF93EF93FF93E091160378
:10030000F0911703309709F01995FF91EF91BF9184
:10031000AF919F918F917F916F915F914F913F919D
:100320002F910F900BBE0F900FBE0F901F9018953E
:100330001F920F920FB60F920BB60F9211242F93AC
:100340003F934F935F936F937F938F939F93AF935D
:10035000BF93EF93FF93E0911803F0911903309747
:1003600009F01995FF91EF91BF91AF919F918F91F6
:100370007F916F915F914F913F912F910F900BBEA5
:100380000F900FBE0F901F9018951F920F920FB6EF
:100390000F920BB60F9211242F933F934F935F93BD
:1003A0006F937F938F939F93AF93BF93EF93FF933D
:1003B000E0911A03F0911B03309709F01995FF9112
:1003C000EF91BF91AF919F918F917F916F915F91CD
:1003D0004F913F912F910F900BBE0F900FBE0F903A
:1003E0001F9018951F920F920FB60F920BB60F9297
:1003F00011242F933F934F935F936F937F938F932A
:100400009F93AF93BF93EF93FF93E0911C03F09101
:100410001D03309709F01995FF91EF91BF91AF91AE
:100420009F918F917F916F915F914F913F912F910C
:100430000F900BBE0F900FBE0F901F901895089550
:1004400088B19FE7892788B90895499903C080E05A
:1004500092E002C081E192E00E94920C08954899D6
:1004600003C084E292E002C08AE392E00E94920C10
:100470000895679903C081E592E002C087E692E0A3
:100480000E94920C0895669903C08EE792E002C024
:1004900083E992E00E94920C0895659903C089EA6D
:1004A00092E002C08EEB92E00E94920C0895649953
:1004B00003C084ED92E002C087EE92E00E94920CAD
:1004C0000895823039F0823018F0863008F042C04A
:1004D000962F02C0962F92959F7011F46623E9F52E
:1004E0008230D1F0833028F4882351F08130C1F577
:1004F0000CC08430F9F08430B0F0853089F521C02B
:1005000085B5887F890F85BD22C080918100887F55
:10051000890F809381001BC08091B100887F890F73
:100520008093B10014C080919100887F890F8093DF
:1005300091000DC08091A100887F890F8093A10058
:1005400006C080912101887F890F8093210180E07E
:1005500090E0089582E090E0089581E090E00895B1
:1005600080E090E0089560E00E9461020895FB0140
:10057000DA0190819C7F282F2370920F90839C91A9
:10058000977F8C70880F980F9C930895FB01DA0178
:1005900090819C7F282F2370920F90839C91977E4F
:1005A0008C70880F980F9C9308950E94B70208954D
:1005B000982F823069F0833030F4882349F08130FD
:1005C00009F03FC002C08630E0F5862F829501C059
:1005D000862F8F7011F46623B9F59230C1F09330F5
:1005E00028F4992351F0913091F50CC09430D9F052
:1005F0009430A0F0953059F51BC064E470E045E4F8
:1006000050E009C060E870E041E850E015C060EBE0
:1006100070E041EB50E00E94B70210C060E970E06A
:1006200041E950E009C060EA70E041EA50E004C0EE
:1006300060E271E041E251E00E94C60280E090E099
:10064000089582E090E0089581E090E0089580E0D0
:1006500090E00895FA01309709F491C08230E9F1F1
:10066000833030F4882359F0813009F085C017C0F9
:10067000833009F443C0843009F07EC05CC061302F
:1006800041F0613020F0623009F079C006C086B5D3
:1006900001C087B5808311826CC088B5FBCF613003
:1006A00069F0613030F0623071F0633009F067C09A
:1006B0000FC0809184009091850059C0809188007E
:1006C0009091890054C080918A0090918B004FC016
:1006D00080918C0090918D004AC0613049F061306A
:1006E00020F0623009F04BC006C08091B200D2CF3A
:1006F0008091B300CFCF8091B400CCCF613061F056
:10070000613028F0623069F06330C9F50FC0809124
:100710009400909195002BC0809198009091990041
:1007200026C080919A0090919B0021C080919C00EE
:1007300090919D001CC0613061F0613028F0623002
:1007400069F06330F9F40FC08091A4009091A50086
:100750000EC08091A8009091A90009C08091AA00C4
:100760009091AB0004C08091AC009091AD0091835A
:10077000808380E090E0089582E090E0089581E039
:1007800090E0089581E090E008958230D9F18330BF
:1007900030F4882359F0813009F081C015C08330CE
:1007A00009F441C0843009F07AC05AC0613041F088
:1007B000613020F0623009F075C004C046BD67C0EA
:1007C00047BD65C048BD63C0613069F0613030F03D
:1007D000623071F0633009F065C00FC0509385003E
:1007E0004093840054C050938900409388004FC0C8
:1007F00050938B0040938A004AC050938D004093E1
:100800008C0045C0613049F0613020F0623009F061
:1008100049C006C04093B2003AC04093B30037C00D
:100820004093B40034C0613061F0613028F0623030
:1008300069F06330B9F50FC0509395004093940070
:1008400026C0509399004093980021C050939B007C
:1008500040939A001CC050939D0040939C0017C089
:10086000613061F0613028F0623069F06330E9F4A2
:1008700011C05093A5004093A40009C05093A90053
:100880004093A80004C05093AB004093AA0080E0BE
:1008900090E008955093AD004093AC00F8CF82E013
:1008A00090E0089581E090E0089581E090E008955F
:1008B000AB0160E00E94C5030895AB0160E00E94B7
:1008C0002A03089560E070E00E9458040895EF92B2
:1008D000FF920F931F93CF93DF930F92CDB7DEB7A5
:1008E000182F042F790169830E94B3026981009750
:1008F00079F4812F0E94D802009751F4812FB7011B
:100900000E945804009721F4812F602F0E946102F9
:100910000F90DF91CF911F910F91FF90EF9008956D
:10092000813079F0813018F0863008F08FC021E0F6
:1009300030E0062E02C0220F331F0A94E2F7277020
:1009400009C021E030E0062E02C0220F331F0A94B6
:10095000E2F72F72222309F47CC0823061F18330E8
:1009600030F4882361F0813009F05CC016C0843017
:10097000F1F1843070F1853009F054C046C0909197
:100980006E004115510521F0922B90936E004AC0E4
:100990002095292320936E0045C090916F0041154A
:1009A000510521F0922B90936F003CC02095292394
:1009B00020936F0037C0909170004115510521F0D0
:1009C000922B909370002EC02095292320937000C5
:1009D00029C0909171004115510521F0922B9093FF
:1009E000710020C020952923209371001BC0909195
:1009F00072004115510521F0922B9093720012C0A4
:100A000020952923209372000DC090917300411509
:100A1000510521F0922B9093730004C02095292357
:100A2000209373009FB7F894E82FF0E0EE0FFF1FBC
:100A3000EE0FFF1FE60FF11DEE0FFF1FE25EFC4FF2
:100A4000518340839FBF80E090E0089582E090E072
:100A5000089581E090E008951F920F920FB60F92D3
:100A60000BB60F9211242F933F934F935F936F9385
:100A70007F938F939F93AF93BF93EF93FF93E091F7
:100A80001E03F0911F03309709F01995FF91EF9124
:100A9000BF91AF919F918F917F916F915F914F9196
:100AA0003F912F910F900BBE0F900FBE0F901F9094
:100AB00018951F920F920FB60F920BB60F9211243A
:100AC0002F933F934F935F936F937F938F939F9356
:100AD000AF93BF93EF93FF93E0912003F091210335
:100AE000309709F01995FF91EF91BF91AF919F91C8
:100AF0008F917F916F915F914F913F912F910F90C7
:100B00000BBE0F900FBE0F901F9018951F920F9263
:100B10000FB60F920BB60F9211242F933F934F9362
:100B20005F936F937F938F939F93AF93BF93EF9355
:100B3000FF93E0912003F0912103309709F019957C
:100B4000FF91EF91BF91AF919F918F917F916F91A5
:100B50005F914F913F912F910F900BBE0F900FBE61
:100B60000F901F9018951F920F920FB60F920BB611
:100B70000F9211242F933F934F935F936F937F9323
:100B80008F939F93AF93BF93EF93FF93E0912603CF
:100B9000F0912703309709F01995FF91EF91BF91DC
:100BA000AF919F918F917F916F915F914F913F9105
:100BB0002F910F900BBE0F900FBE0F901F901895A6
:100BC0001F920F920FB60F920BB60F9211242F9314
:100BD0003F934F935F936F937F938F939F93AF93C5
:100BE000BF93EF93FF93E0912803F091290330978F
:100BF00009F01995FF91EF91BF91AF919F918F915E
:100C00007F916F915F914F913F912F910F900BBE0C
:100C10000F900FBE0F901F9018951F920F920FB656
:100C20000F920BB60F9211242F933F934F935F9324
:100C30006F937F938F939F93AF93BF93EF93FF93A4
:100C4000E0912A03F0912B03309709F01995FF9159
:100C5000EF91BF91AF919F918F917F916F915F9134
:100C60004F913F912F910F900BBE0F900FBE0F90A1
:100C70001F9018951F920F920FB60F920BB60F92FE
:100C800011242F933F934F935F936F937F938F9391
:100C90009F93AF93BF93EF93FF93E0912C03F09159
:100CA0002D03309709F01995FF91EF91BF91AF9106
:100CB0009F918F917F916F915F914F913F912F9174
:100CC0000F900BBE0F900FBE0F901F9018951F92A4
:100CD0000F920FB60F920BB60F9211242F933F93E2
:100CE0004F935F936F937F938F939F93AF93BF9334
:100CF000EF93FF93E0912E03F0912F03309709F0CB
:100D00001995FF91EF91BF91AF919F918F917F9135
:100D10006F915F914F913F912F910F900BBE0F906C
:100D20000FBE0F901F9018951F920F920FB60F9243
:100D30000BB60F9211242F933F934F935F936F93B2
:100D40007F938F939F93AF93BF93EF93FF93E09124
:100D50003003F0913103309709F01995FF91EF912D
:100D6000BF91AF919F918F917F916F915F914F91C3
:100D70003F912F910F900BBE0F900FBE0F901F90C1
:100D800018951F920F920FB60F920BB60F92112467
:100D90002F933F934F935F936F937F938F939F9383
:100DA000AF93BF93EF93FF93E0913003F091310342
:100DB000309709F01995FF91EF91BF91AF919F91F5
:100DC0008F917F916F915F914F913F912F910F90F4
:100DD0000BBE0F900FBE0F901F9018951F920F9291
:100DE0000FB60F920BB60F9211242F933F934F9390
:100DF0005F936F937F938F939F93AF93BF93EF9383
:100E0000FF93E0913603F0913703309709F019957D
:100E1000FF91EF91BF91AF919F918F917F916F91D2
:100E20005F914F913F912F910F900BBE0F900FBE8E
:100E30000F901F9018951F920F920FB60F920BB63E
:100E40000F9211242F933F934F935F936F937F9350
:100E50008F939F93AF93BF93EF93FF93E0913803EA
:100E6000F0913903309709F01995FF91EF91BF91F7
:100E7000AF919F918F917F916F915F914F913F9132
:100E80002F910F900BBE0F900FBE0F901F901895D3
:100E90001F920F920FB60F920BB60F9211242F9341
:100EA0003F934F935F936F937F938F939F93AF93F2
:100EB000BF93EF93FF93E0913A03F0913B03309798
:100EC00009F01995FF91EF91BF91AF919F918F918B
:100ED0007F916F915F914F913F912F910F900BBE3A
:100EE0000F900FBE0F901F9018951F920F920FB684
:100EF0000F920BB60F9211242F933F934F935F9352
:100F00006F937F938F939F93AF93BF93EF93FF93D1
:100F1000E0913C03F0913D03309709F01995FF9162
:100F2000EF91BF91AF919F918F917F916F915F9161
:100F30004F913F912F910F900BBE0F900FBE0F90CE
:100F40001F9018951F920F920FB60F920BB60F922B
:100F500011242F933F934F935F936F937F938F93BE
:100F60009F93AF93BF93EF93FF93E0913E03F09174
:100F70003F03309709F01995FF91EF91BF91AF9121
:100F80009F918F917F916F915F914F913F912F91A1
:100F90000F900BBE0F900FBE0F901F9018951F92D1
:100FA0000F920FB60F920BB60F9211242F933F930F
:100FB0004F935F936F937F938F939F93AF93BF9361
:100FC000EF93FF93E0914003F0914103309709F0D4
:100FD0001995FF91EF91BF91AF919F918F917F9163
:100FE0006F915F914F913F912F910F900BBE0F909A
:100FF0000FBE0F901F9018951F920F920FB60F9271
:101000000BB60F9211242F933F934F935F936F93DF
:101010007F938F939F93AF93BF93EF93FF93E09151
:101020004203F0914303309709F01995FF91EF9136
:10103000BF91AF919F918F917F916F915F914F91F0
:101040003F912F910F900BBE0F900FBE0F901F90EE
:1010500018951F920F920FB60F920BB60F92112494
:101060002F933F934F935F936F937F938F939F93B0
:10107000AF93BF93EF93FF93E0914403F091450347
:10108000309709F01995FF91EF91BF91AF919F9122
:101090008F917F916F915F914F913F912F910F9021
:1010A0000BBE0F900FBE0F901F9018951F920F92BE
:1010B0000FB60F920BB60F9211242F933F934F93BD
:1010C0005F936F937F938F939F93AF93BF93EF93B0
:1010D000FF93E0914603F0914703309709F019958B
:1010E000FF91EF91BF91AF919F918F917F916F9100
:1010F0005F914F913F912F910F900BBE0F900FBEBC
:101100000F901F9018951F920F920FB60F920BB66B
:101110000F9211242F933F934F935F936F937F937D
:101120008F939F93AF93BF93EF93FF93E091480307
:10113000F0914903309709F01995FF91EF91BF9114
:10114000AF919F918F917F916F915F914F913F915F
:101150002F910F900BBE0F900FBE0F901F90189500
:101160001F920F920FB60F920BB60F9211242F936E
:101170003F934F935F936F937F938F939F93AF931F
:10118000BF93EF93FF93E0914A03F0914B033097A5
:1011900009F01995FF91EF91BF91AF919F918F91B8
:1011A0007F916F915F914F913F912F910F900BBE67
:1011B0000F900FBE0F901F9018951F920F920FB6B1
:1011C0000F920BB60F9211242F933F934F935F937F
:1011D0006F937F938F939F93AF93BF93EF93FF93FF
:1011E000E0914C03F0914D03309709F01995FF9170
:1011F000EF91BF91AF919F918F917F916F915F918F
:101200004F913F912F910F900BBE0F900FBE0F90FB
:101210001F901895AC0120E030E00CC08091C80010
:1012200085FFFCCFFA01E20FF31F80818093CE008F
:101230002F5F3F4F261737078CF30895DC019091FD
:10124000CE038091CF03981711F480E00895909118
:10125000CE038091CF03981719F420E030E017C037
:101260009091CE038091CF03981738F48091CF03EB
:101270009091CE03282F30E008C08091CF03909149
:10128000CE03282F30E020583F4F291B3109A901F8
:10129000621773070CF4AB0120E030E020C090919E
:1012A000CE038091CF03981711F49FEF12C0E09105
:1012B000CE03F0E0E25BFC4F90818091CE038F374C
:1012C00019F41092CE0305C08091CE038F5F8093F6
:1012D000CE03FD01E20FF31F90832F5F3F4F2417D2
:1012E0003507ECF2842F08959091CE038091CF03BF
:1012F000981719F420E030E017C09091CE03809148
:10130000CF03981738F48091CF039091CE03282F04
:1013100030E008C08091CF039091CE03282F30E0B9
:1013200020583F4F291B3109C9010895482F90913A
:10133000CE038091CF039817D1F09091CE03809186
:10134000CF03981738F48091CF039091CE03282FC4
:1013500030E008C08091CF039091CE03282F30E079
:1013600020583F4F291B31092F37310591F0E0916B
:10137000CF03F0E0E25BFC4F40838091CF038F37D7
:1013800019F41092CF0308958091CF038F5F80935B
:10139000CF0308959091CE038091CF03981711F455
:1013A000EFEF12C0E091CE03F0E0E25BFC4FE08192
:1013B0008091CE038F3719F41092CE0305C080912F
:1013C000CE038F5F8093CE038E2F08951F920F92CE
:1013D0000FB60F920BB60F9211242F933F934F939A
:1013E0005F936F937F938F939F93AF93BF93EF938D
:1013F000FF938091CE000E949609FF91EF91BF91DB
:10140000AF919F918F917F916F915F914F913F919C
:101410002F910F900BBE0F900FBE0F901F9018953D
:10142000DF93CF930F920F92CDB7DEB7982F8A300C
:1014300099F48DE089839A83FE0131969E012D5F98
:101440003F4F8091C80085FFFCCF81918093CE00F3
:10145000E217F307B1F706C08091C80085FFFCCF03
:101460009093CE0080E090E00F900F90CF91DF91AD
:1014700008959091CE038091CF039817D1F3909166
:10148000CE038091CF03981738F48091CF039091C9
:10149000CE03282F30E008C08091CF039091CE0377
:1014A000282F30E020583F4F291B3109232B09F307
:1014B0009091CE038091CF03981711F4EFEF15C0F0
:1014C000E091CE03F0E0E25BFC4FE0818091CE033F
:1014D0008F3719F41092CE0305C08091CE038F5F31
:1014E0008093CE03ED3009F4EAE08E2F90E008956A
:1014F0000E94950B9B01AC0160E074E284EF99E4DB
:101500000E94FF0A0E94670B6150704022E4209302
:10151000C80028E92093C90026E02093CA002FEFD5
:101520002093CE001092CE031092CF03272F3327A3
:1015300027FD3A952093CD006093CC007298739A62
:1015400080E19AE069E37AE00E94480C9093D1032D
:101550008093D00308950E94080160E071EE80E05E
:1015600090E00E94780A789484E060E04FE152E0D5
:101570000E94900484E061E040E252E00E94900406
:1015800084E061E048E05DE30E94C50384E062E43A
:1015900045E720E030E00E946704009721F48BEFDC
:1015A00092E00E94920C80E167E572E00E94DB000D
:1015B00080E26DE472E00E94DB0080E463E472E0AC
:1015C0000E94DB0080E869E372E00E94DB0081E0BA
:1015D0006FE272E00E94DB0082E065E272E00E944E
:1015E000DB0090E285B1892785B92FEF31EE44E029
:1015F000215030404040E1F700C00000F3CF0CD054
:10160000E6C0DED040F0D5D030F021F45F3F19F0D5
:10161000C7C0511110C1CAC0EBD098F39923C9F3C8
:101620005523B1F3951B550BBB27AA2762177307E8
:10163000840738F09F5F5F4F220F331F441FAA1F9C
:10164000A9F333D00E2E3AF0E0E830D0915050405C
:10165000E695001CCAF729D0FE2F27D0660F771F0A
:10166000881FBB1F261737074807AB07B0E809F0EC
:10167000BB0B802DBF01FF2793585F4F2AF09E3F81
:10168000510568F08DC0D7C05F3FECF3983EDCF3A6
:10169000869577956795B795F7959F5FC9F7880FFA
:1016A000911D9695879597F90895E1E0660F771F4C
:1016B000881FBB1F621773078407BA0720F0621BDD
:1016C000730B840BBA0BEE1F88F7E095089598D042
:1016D00088F09F5790F0B92F9927B751A0F0D1F01B
:1016E000660F771F881F991F1AF0BA95C9F712C0A5
:1016F000B13081F09FD0B1E008959CC0672F782F62
:101700008827B85F39F0B93FCCF386957795679510
:10171000B395D9F73EF490958095709561957F4F7C
:101720008F4F9F4F0895E89409C097FB3EF4909522
:101730008095709561957F4F8F4F9F4F9923A9F0AA
:10174000F92F96E9BB279395F69587957795679539
:10175000B795F111F8CFFAF4BB0F11F460FF1BC07D
:101760006F5F7F4F8F4F9F4F16C0882311F096E910
:1017700011C0772321F09EE8872F762F05C06623BE
:1017800071F096E8862F70E060E02AF09A95660F77
:10179000771F881FDAF7880F9695879597F9089530
:1017A00097F99F6780E870E060E008959FEF80EC14
:1017B000089500240A9416161706180609060895B7
:1017C00000240A9412161306140605060895092E1D
:1017D0000394000C11F4882352F0BB0F40F4BF2B8C
:1017E00011F460FF04C06F5F7F4F8F4F9F4F0895CC
:1017F00057FD9058440F551F59F05F3F71F04795C2
:10180000880F97FB991F61F09F3F79F087950895A6
:10181000121613061406551FF2CF4695F1DF08C0C5
:10182000161617061806991FF1CF869571056105E2
:1018300008940895E894BB2766277727CB0197F98A
:10184000089597FB092E07260AD077FD04D00CD007
:1018500006D000201AF4709561957F4F0895F6F731
:10186000909581959F4F0895AA1BBB1B51E107C01E
:10187000AA1FBB1FA617B70710F0A61BB70B881F20
:10188000991F5A95A9F780959095BC01CD010895AF
:101890000F931F93CF93DF938C01EB01009711F40B
:1018A0002097C1F181E090E06EE070E00E94C00CF2
:1018B000FC01009789F180E88383209771F0D3873A
:1018C000C28781E883838091D2039091D3030097EC
:1018D00021F4F093D303E093D20301151105E1F055
:1018E000118700878381826083838091D4039091E4
:1018F000D503009789F4F093D503E093D403809146
:10190000D6039091D703009739F4F093D703E0936F
:10191000D60302C0E0E0F0E0CF01DF91CF911F914C
:101920000F9108950F931F93CF93DF938C01E09154
:10193000D403F091D503838181FF1AC0C0E0D0E0C9
:1019400005C01995009711F0CFEFDFEFF8018191F5
:101950008F016091D4037091D503DB011896ED914E
:10196000FC911997882369F78AE01995009711F07F
:10197000CFEFDFEFCE01DF91CF911F910F9108954F
:101980000F931F93CF93DF93689F8001699F100D82
:10199000789F100D1124C8010E94DE0CC82FD92F8A
:1019A000209731F08C2F60E070E0A8010E940D0EAE
:1019B000CE01DF91CF911F910F910895CF93DF93C7
:1019C000AC018230910510F442E050E0E091DA037E
:1019D000F091DB0320E030E0A0E0B0E024C08081A3
:1019E000918184179507D0F08417950771F482814F
:1019F0009381109729F013969C938E9312972CC085
:101A00009093DB038093DA0327C02115310519F089
:101A10008217930718F49C01BD01EF019281838125
:101A2000DF01E92FF82F3097D1F621153105F9F0B4
:101A3000C901841B950B8430910580F48A819B81B8
:101A40006115710521F0FB019383828304C090939B
:101A5000DB038093DA03FE01329642C0FE01E80FF9
:101A6000F91F4193519302979983888339C08091DC
:101A7000D8039091D903009741F480910A03909183
:101A80000B039093D9038093D803209108033091DE
:101A900009032115310541F42DB73EB780910C03A0
:101AA00090910D03281B390BE091D803F091D903D5
:101AB000E217F30798F42E1B3F0B2417350770F03D
:101AC000CA0102962817390748F08E0F9F1F90937E
:101AD000D9038093D8034193519302C0E0E0F0E032
:101AE000CF01DF91CF9108950F931F93CF93DF9391
:101AF0009C01009709F48CC0DC01129713961C928C
:101B00001E9212976091DA037091DB0361157105E3
:101B100089F48D919C911197820F931F2091D80386
:101B20003091D9032817390769F5B093D903A093E9
:101B3000D8036EC0FB0140E050E001C0FC01EA1791
:101B4000FB0730F482819381AF010097B9F71FC082
:101B5000E9012297FB83EA8308811981C901800F7B
:101B6000911F8E179F0759F480819181800F911FDB
:101B7000029699838883828193819B838A8341150E
:101B8000510529F4B093DB03A093DA0341C0FA01B5
:101B9000B383A283C191D191EC0FFD1FAE17BF0794
:101BA00081F4F901929182918C0F9D1F0296DA01C6
:101BB00011969C938E938281938113969C938E931E
:101BC0001297E0E0F0E002C0FB01BC01DB011296DD
:101BD0008D919C9113970097B9F7CB0102962D91A7
:101BE0003C911197820F931F2091D8033091D90314
:101BF0002817390769F4309729F41092DB03109203
:101C0000DA0302C0138212827093D9036093D8035F
:101C1000DF91CF911F910F910895DC0101C06D9369
:0C1C200041505040E0F70895F894FFCFC9
:101C2C004D49432047455453204143544956452E72
:101C3C00004D4943204745545320494E4143544994
:101C4C0056452E00425554544F4E20535441525435
:101C5C0020505245535345442E00425554544F4E38
:101C6C002053544152542052454C45415345442E27
:101C7C0000425554544F4E2052494748542050521C
:101C8C0045535345442E00425554544F4E2052490F
:101C9C004748542052454C45415345442E0042552B
:101CAC0054544F4E204C45465420505245535345A6
:101CBC00442E00425554544F4E204C45465420520D
:101CCC00454C45415345442E00425554544F4E20EB
:101CDC00444F574E20505245535345442E004255C5
:101CEC0054544F4E20444F574E2052454C4541536F
:101CFC0045442E00425554544F4E205550205052BE
:101D0C0045535345442E00425554544F4E20555084
:101D1C002052454C45415345442E0054696D657223
:0E1D2C0020776F726B7321000000DC03200033
:00000001FF
